:10000000E4C0FEC0FDC078C3FBC0FAC0F9C0F8C0B0
:10001000F7C0F6C0F5C0F4C0F3C0F2C0F1C0F0C044
:10002000EFC0D8C4EDC00FC3F6C2F8C2FAC2FCC21A
:10003000FEC200C302C304C3A4C5A6C5A5C5A4C50A
:10004000A3C5A2C5A1C5A0C5E3C49EC59DC59CC549
:100050009BC59AC599C598C5DBC496C595C594C579
:1000600093C592C591C590C5D9C48EC58DC58CC5A3
:100070008BC58AC589C588C5E7C486C585C584C5BD
:1000800083C582C581C580C5C9C47EC57DC57CC503
:100090007BC57AC579C578C5DCC476C575C574C518
:1000A00073C572C571C570C5D9C46EC56DC56CC543
:1000B0006BC56AC569C568C5E1C466C565C564C563
:1000C00063C562C561C560C5F0C45EC55DC55CC57C
:1000D0005BC55AC559C558C5C6C456C555C554C5CE
:1000E00053C552C551C550C5D5C44EC54DC54CC5E7
:1000F0004BC54AC549C548C5DAC446C545C544C50A
:1001000043C542C541C540C5D2C43EC53DC53CC539
:100110003BC53AC539C538C5CAC436C535C534C569
:1001200033C532C531C530C5C2C42EC52DC52CC599
:100130002BC52AC529C528C5C2C426C525C524C5C1
:1001400023C522C521C520C5E8C41EC51DC51CC5C3
:100150001BC51AC519C518C5B2C416C515C514C521
:1001600013C512C511C510C5D8C40EC50DC50CC523
:100170000BC50AC509C508C5B7C406C505C504C56C
:1001800003C502C501C500C5CBC4FEC4FDC4FCC483
:10019000FBC4FAC4F9C4F8C4C3C4F6C4F5C4F4C4B7
:1001A000F3C4F2C4F1C4F0C4D0C4EEC4EDC4ECC4D2
:1001B000EBC4EAC4E9C4E8C4DFC4E6C4E5C4E4C4EB
:1001C000E3C4E2C4E1C4E0C4D7C411241FBECFE538
:1001D000D4E0DEBFCDBF10E0A0E6B0E0EEE8FCE08A
:1001E00002C005900D92A236B107D9F721E0A2E630
:1001F000B0E001C01D92A132B207E1F775D045C54C
:10020000FFCE882321F085B3816085BB089585B337
:100210008E7F85BB089585B3826085BB2FEF80E715
:1002200092E0215080409040E1F700C0000085B38B
:100230008D7F85BB2FEF80E792E02150804090407A
:10024000E1F700C0000008959B9929C0FC012081BE
:10025000211110C021E02083FB012083FFEF20E764
:1002600082E0F15020408040E1F700C000009B9BFD
:10027000FECF0895213099F4FB012081213079F4DB
:10028000FC011082FB011082FFEF20E782E0F150B9
:1002900020408040E1F700C000009B9BFECF089506
:1002A0009A9915C081E0ADDFB6DF8091D7008F5FEE
:1002B0008093D70091E090936400109263001092B5
:1002C0006200833011F41092D70080E09ADF089525
:1002D000B49909C0B49BFECF81E080936400109272
:1002E0006300109262000895CF93DF9300D000D096
:1002F000CDB7DEB7D0D159D4789481E08093DA00BD
:1003000082E08093D90083E08093DC0084E08093D6
:10031000DB0084B3877F84BB85B3886085BB84B3EF
:100320008B7F84BB85B3846085BB87B38F7E87BB9F
:1003300088B3806188BB87B38F7D87BB88B38062B9
:1003400088BB84B3816084BB81B3816081BB198227
:10035000AE014C5F5F4FBE016D5F7F4FCE010296D5
:1003600028D280E04EDF8091D7008130D9F120F093
:10037000823009F4BCC035C1AE014C5F5F4FBE0195
:100380006D5F7F4FCE01029614D28C8180FF04C036
:1003900081E08093D80002C01092D8002A818DECB1
:1003A000289F912D11249695969596959093DA0015
:1003B000990F392F330F330F930F291B2093D90037
:1003C0009B81989F812D1124869586958695809393
:1003D000DC00880F282F220F220F820F981B90938A
:1003E000DB00FFC064E670E0CE0101962DDF70DF18
:1003F00040916200509163004536510520F081E044
:100400008093D80002C01092D8009A0136952795A3
:100410003695279536952795A5ECB0E22AD48C0120
:10042000129502950F7001271F7001270093DA00C3
:1004300088E19CEF089FF001099FF00D189FF00DD7
:1004400011249A012E0F3F1F369527953695279533
:10045000ABE7B4E10ED47C01F694E794E092D900C6
:100460001CE96E2D1603900111242E0F3F1F240F3F
:10047000351FADECBCECFDD3969587959695879589
:10048000969587958093DC001E9D102D112428E100
:10049000029F100D1124410F880F982F990F990F6B
:1004A000890F481B4093DB006FE788E391E06150C0
:1004B00080409040E1F700C000008091640081110D
:1004C00009C080916200909163000196909363004F
:1004D0008093620080916200909163008F30974218
:1004E00009F07FC010926300109262007AC064E647
:1004F00070E0CE010196A8DEEBDE409162005091E3
:1005000063009A0136952795369527953695279558
:10051000A5ECB0E2AED38C01129502950F700127C5
:100520001F7001270093DA0088E19CEF089FF0011B
:10053000099FF00D189FF00D11249A012E0F3F1FF7
:100540003695279536952795ABE7B4E192D37C0194
:10055000F694E794E092D9001CE96E2D1603900101
:1005600011242E0F3F1F240F351FADECBCEC81D39F
:100570009695879596958795969587958093DC00B7
:100580001E9D102D112428E1029F100D1124410FF2
:10059000880F982F990F990F890F481B4093DB0004
:1005A0006FE788E391E0615080409040E1F700C040
:1005B000000080916400811109C0809162009091D7
:1005C00063000197909363008093620080916200C2
:1005D000909163008F30974221F410926300109243
:1005E00062005EDEBECE8091D800882321F082B307
:1005F000816082BB089582B38E7F82BB089590E0B4
:10060000FC013197E930F10518F4ED5EFF4F0994D4
:100610008CEF90E008958AED90E0089582EF90E0ED
:10062000089586E690E0089586EB90E008958EEBBD
:1006300090E0089580EE90E008958EEF90E00895A8
:1006400086EF90E0089580E690E0089518BA823031
:1006500079F018F4813031F00895833081F08430DE
:10066000A1F00895862FCBDF82BB81E088BB08957F
:10067000862FC5DF82BBB7DF82E088BB0895862F57
:10068000BEDF82BB84E088BB0895862FB8DF82BBC3
:1006900088E088BB08958FEF81BB82BB97B39F60D2
:1006A00097BB18BA2FEF39E698E1215030409040BF
:1006B000E1F700C0000088BB2FEF39E688E1215048
:1006C00030408040E1F700C0000018BA9FEF29E6F3
:1006D00038E1915020403040E1F700C0000012BAEC
:1006E00085B5886085BD85B5866085BD8BE983BD90
:1006F00089B7806889BF08951F920F920FB60F9235
:1007000011242F933F934F935F936F937F938F9316
:100710009F93AF93BF93EF93FF93809160008230DC
:1007200079F018F4813031F01CC0833079F08430D6
:1007300099F017C0809160006091DA0087DF11C0E6
:10074000809160006091D90081DF0BC080916000D2
:100750006091DC007BDF05C0809160006091DB0070
:1007600075DF809160008F5F8093600080916000F2
:10077000853018F081E080936000FF91EF91BF9188
:10078000AF919F918F917F916F915F914F913F9129
:100790002F910F900FBE0F901F901895982F929544
:1007A0009F70990F292F220F220F920F8F70890FA0
:1007B00008958F929F92AF92BF92CF92DF92EF9265
:1007C000FF921F93CF93DF93CDB7DEB729970FB674
:1007D000F894DEBF0FBECDBF6C015B014A0188E615
:1007E000FAD180E011D201D267E088E6E8D110E0CA
:1007F0000BC0E12EF12C2CD2E1E0F0E0EC0FFD1F5C
:10080000EE0DFF1D80831F5F173098F3EED181142A
:10081000910421F08981C2DFF4018083A114B10425
:1008200021F08A81BBDFF5018083C114D10421F05E
:100830008B81B4DFF601808329960FB6F894DEBF72
:100840000FBECDBFDF91CF911F91FF90EF90DF9052
:10085000CF90BF90AF909F908F9008951092D0004E
:1008600082B3816082BB82B3826082BB81B18E7FA2
:1008700081B981B18D7F81B984E280B985E486BF79
:100880000895413290F59091D0009111FCCF91E004
:100890009093D0009FEF909365001092AA00940F60
:1008A0009093A90090E0880F991F81608093CF00FA
:1008B00085EE86BF8091D0008130E1F38091AA005F
:1008C000841710F44091AA0090E00BC0292F30E06B
:1008D000FB01E20FF31FD901A555BF4F2C912083D7
:1008E0009F5F941798F3842F089580E00895413214
:1008F000B8F55091D0005111FCCF92E09093D00008
:100900009FEF909365001092AA004093A90090E099
:100910000AC0E92FF0E0DB01AE0FBF1F3C91E555A7
:10092000FF4F30839F5F9417A0F390E0880F991FCB
:100930008093CF0085EE86BF222321F08091D000E6
:100940008230D1F3809165008F3F79F0809165000E
:10095000803241F080916500803331F453E005C06E
:1009600051E003C052E001C054E0852F0895DC013E
:100970006132B8F48091D0008430A9F4609387008C
:1009800090E00BC0292F30E0FD01E20FF31F408102
:10099000F901E757FF4F40839F5F961798F380E078
:1009A000089581E0089582E00895882319F085EC88
:1009B00086BF089585E886BF089585ED86BF06B693
:1009C00004FCFDCF1092D000089585EC86BF1092F4
:1009D000D00008951F920F920FB60F9211242F93FB
:1009E0003F934F935F936F937F938F939F93AF93B7
:1009F000BF93EF93FF9381B1E82FE87F8E2F90E0B4
:100A0000893C910508F0C0C0FC01E45EFF4F0994E9
:100A10008091CF0083B981E0C8DFB6C09091AA0071
:100A20008091A900981770F4E091AA0081E08E0FE0
:100A30008093AA00F0E0E555FF4F808183B981E003
:100A4000B4DFA2C0BADFA0C080E280936500B5DF4A
:100A50009BC080E380936500B0DF96C088E38093FD
:100A60006500B3DF91C0E091AA0081E08E0F809312
:100A7000AA00F0E083B1E555FF4F80839091AA0072
:100A80008091A900981718F481E08FDF7DC080E085
:100A90008CDF7AC0E091AA0081E08E0F8093AA00DB
:100AA000F0E083B1E555FF4F808387DF6DC083E0C1
:100AB0008093D0001092660081E077DF65C080915E
:100AC0006600803270F4E091660081E08E0F8093C2
:100AD0006600F0E083B1E959FF4F808381E065DF74
:100AE00053C080E062DF50C080916600803230F4F5
:100AF000E0916600F0E0E959FF4F10825EDF6091FF
:100B0000660070E0E091CB00F091CC0087E690E0C9
:100B100009951092660059DF37C080E046DF34C087
:100B200084E08093D0001092880010928700E091BA
:100B3000CD00F091CE00099580918700811105C00C
:100B400081E08093870010928900E091880081E025
:100B50008E0F80938800F0E0E757FF4F808183B9C4
:100B60009091880080918700981718F481E01DDF2C
:100B70000BC080E01ADF08C081E017DF1092D000C0
:100B800003C01092650019DFFF91EF91BF91AF9103
:100B90009F918F917F916F915F914F913F912F9195
:100BA0000F900FBE0F901F9018951092D6001092C4
:100BB000D5001092D3001092D20050DE0895462F37
:100BC000613208F040E26FED70E05BDE1092D6001B
:100BD0008093D500089591E09093D1008093D40044
:100BE0001092D3001092D200089521E04091D200DB
:100BF0006FEF70E08091D4007ADE1092D3001092F3
:100C0000D2001092D1000895CF93DF931F92CDB7F9
:100C1000DEB789838091D100882391F08091D20042
:100C2000803290F48091D300E82FF0E0E150FF4F44
:100C3000998190838F5F8093D3008093D20004C00A
:100C400061E0CE01019693DE0F90DF91CF91089580
:100C50009091D6008091D500981748F4E92FF0E0E4
:100C6000E152FF4F80819F5F9093D600089580E00E
:100C70000895A29FB001B39FC001A39F01D0B29F6E
:0E0C8000700D811D1124911D0895F894FFCF71
:020C8E00010063
:00000001FF
