S01700004763634170706C69636174696F6E382E7372656354
S1130000E4C0FEC0FDC03FC3FBC0FAC0F9C0F8C0E5
S1130010F7C0F6C0F5C0F4C0F3C0F2C0F1C0F0C040
S1130020EFC09FC4EDC0D6C2BDC2BFC2C1C2C3C26D
S1130030C5C2C7C2C9C2CBC26BC56DC56CC56BC5D1
S11300406AC569C568C567C5AAC465C564C563C50D
S113005062C561C560C55FC5A2C45DC55CC55BC53D
S11300605AC559C558C557C5A0C455C554C553C567
S113007052C551C550C54FC5AEC44DC54CC54BC581
S11300804AC549C548C547C590C445C544C543C5C7
S113009042C541C540C53FC5A3C43DC53CC53BC5DC
S11300A03AC539C538C537C5A0C435C534C533C507
S11300B032C531C530C52FC5A8C42DC52CC52BC527
S11300C02AC529C528C527C5B7C425C524C523C540
S11300D022C521C520C51FC58DC41DC51CC51BC592
S11300E01AC519C518C517C59CC415C514C513C5AB
S11300F012C511C510C50FC5A1C40DC50CC50BC5CE
S11301000AC509C508C507C599C405C504C503C5FD
S113011002C501C500C5FFC491C4FDC4FCC4FBC431
S1130120FAC4F9C4F8C4F7C489C4F5C4F4C4F3C464
S1130130F2C4F1C4F0C4EFC489C4EDC4ECC4EBC48C
S1130140EAC4E9C4E8C4E7C4AFC4E5C4E4C4E3C48E
S1130150E2C4E1C4E0C4DFC479C4DDC4DCC4DBC4EC
S1130160DAC4D9C4D8C4D7C49FC4D5C4D4C4D3C4EE
S1130170D2C4D1C4D0C4CFC47EC4CDC4CCC4CBC437
S1130180CAC4C9C4C8C4C7C492C4C5C4C4C4C3C44B
S1130190C2C4C1C4C0C4BFC48AC4BDC4BCC4BBC47B
S11301A0BAC4B9C4B8C4B7C497C4B5C4B4C4B3C496
S11301B0B2C4B1C4B0C4AFC4A6C4ADC4ACC4ABC4AF
S11301C0AAC4A9C4A8C4A7C49EC411241FBECFE551
S11301D0D4E0DEBFCDBF10E0A0E6B0E0ECE1FCE08F
S11301E002C005900D92A236B107D9F721E0A2E62C
S11301F0B0E001C01D92AE31B207E1F760D00CC58A
S1130200FFCE882321F085B3816085BB089585B333
S11302108E7F85BB089585B3826085BB2FEF80E711
S113022092E0215080409040E1F700C0000085B387
S11302308D7F85BB2FEF80E792E021508040904076
S1130240E1F700C0000008959B9925C0FC012081BE
S113025021110EC021E02083FB012083FFEF20E762
S113026082E0F15020408040E1F700C00000089592
S1130270213089F4FB012081213069F4FC011082D2
S1130280FB011082FFEF20E782E0F1502040804024
S1130290E1F700C0000008959A9910C081E0B1DF31
S11302A0BADF8091D4008F5F8093D4009A9BFECFF5
S11302B0833011F41092D40080E0A3DF0895CF932B
S11302C0DF9300D000D01F92CDB7DEB7ABD134D4CA
S11302D0789481E08093D70082E08093D60083E015
S11302E08093D90084E08093D80084B3877F84BB53
S11302F085B3886085BB84B38B7F84BB85B38460FE
S113030085BB84B3816084BB81B3816081BB198266
S11303101A82AE014B5F5F4FBE016C5F7F4FCE010F
S113032003960ED200E010E080E06BDF8091D400F1
S11303308130D9F120F0823009F4ABC019C1AE018B
S11303404B5F5F4FBE016C5F7F4FCE010396F8D1C8
S11303508D8180FF04C081E08093D50002C010929B
S1130360D5002B818DEC289F912D1124969596957F
S113037096959093D700990F392F330F330F930F1E
S1130380291B2093D6009C81989F812D112486954A
S1130390869586958093D900880F282F220F220FE7
S11303A0820F981B9093D800E3C0BE016E5F7F4F0D
S11303B0CE01019649DF0536110520F081E08093D6
S11303C0D50002C01092D500980136952795369530
S11303D0279536952795A5ECB0E212D47C01F694C6
S11303E0E794F694E794F694E794F694E794E0920D
S11303F0D70088E19CEFE89EF001E99EF00DF89E9D
S1130400F00D112498012E0F3F1F36952795369530
S11304102795ABE7B4E1F4D36C01D694C794C092AA
S1130420D6004CE95C2D4503900111242E0F3F1F8B
S1130430200F311FADECBCECE3D3969587959695D0
S11304408795969587958093D9004C9D402D1124CE
S113045028E1E29E400D1124400F880F982F990F38
S1130460990F890F481B4093D8005FE788E391E018
S1130470515080409040E1F700C000008A81811112
S113048002C00F5F1F4F0F3027E2120709F070C040
S11304906AC0BE016E5F7F4FCE010196D5DE980122
S11304A0369527953695279536952795A5ECB0E290
S11304B0A7D37C01F694E794F694E794F694E79432
S11304C0F694E794E092D70088E19CEFE89EF0016F
S11304D0E99EF00DF89EF00D112498012E0F3F1F98
S11304E03695279536952795ABE7B4E189D36C010A
S11304F0D694C794C092D6004CE95C2D4503900174
S113050011242E0F3F1F200F311FADECBCEC78D30C
S11305109695879596958795969587958093D90016
S11305204C9D402D112428E1E29E400D1124400FE2
S1130530880F982F990F990F890F481B4093D80063
S11305405FE788E391E0515080409040E1F700C0BC
S113055000008A81811102C0015011090F3027E285
S1130560120731F403C000E010E002C000E010E024
S113057093DEDACE8091D500882321F082B38160A6
S113058082BB089582B38E7F82BB089590E0FC0104
S11305903197E930F10518F4ED5EFF4F09948CEFC3
S11305A090E008958AED90E0089582EF90E0089538
S11305B086E690E0089586EB90E008958EEB90E057
S11305C0089580EE90E008958EEF90E0089586EF10
S11305D090E0089580E690E0089518BA823079F0AA
S11305E018F4813031F00895833081F08430A1F023
S11305F00895862FCBDF82BB81E088BB0895862FC8
S1130600C5DF82BBB7DF82E088BB0895862FBEDFDB
S113061082BB84E088BB0895862FB8DF82BB88E064
S113062088BB08958FEF81BB82BB97B39F6097BB54
S113063018BA2FEF39E698E1215030409040E1F7A5
S113064000C0000088BB2FEF39E688E1215030401C
S11306508040E1F700C0000018BA9FEF29E638E1B6
S1130660915020403040E1F700C0000012BA85B537
S1130670886085BD85B5866085BD8BE983BD89B7F6
S1130680806889BF08951F920F920FB60F921124AC
S11306902F933F934F935F936F937F938F939F9386
S11306A0AF93BF93EF93FF9380916000823079F012
S11306B018F4813031F01CC0833079F0843099F023
S11306C017C0809160006091D70087DF11C08091CE
S11306D060006091D60081DF0BC080916000609162
S11306E0D9007BDF05C0809160006091D80075DF80
S11306F0809160008F5F80936000809160008530FE
S113070018F081E080936000FF91EF91BF91AF9169
S11307109F918F917F916F915F914F913F912F9115
S11307200F900FBE0F901F901895982F92959F7061
S1130730990F292F220F220F920F8F70890F08957E
S11307408F929F92AF92BF92CF92DF92EF92FF92DD
S11307501F93CF93DF93CDB7DEB729970FB6F894E5
S1130760DEBF0FBECDBF6C015B014A0188E6FAD142
S113077080E011D201D267E088E6E8D110E00BC036
S1130780E12EF12C2CD2E1E0F0E0EC0FFD1FEE0D98
S1130790FF1D80831F5F173098F3EED181149104FD
S11307A021F08981C2DFF4018083A114B10421F016
S11307B08A81BBDFF5018083C114D10421F08B81D0
S11307C0B4DFF601808329960FB6F894DEBF0FBE1E
S11307D0CDBFDF91CF911F91FF90EF90DF90CF902D
S11307E0BF90AF909F908F9008951092CD0082B3E8
S11307F0816082BB82B3826082BB81B18E7F81B90A
S113080081B18D7F81B984E280B985E486BF089582
S1130810413290F59091CD009111FCCF91E09093ED
S1130820CD009FEF909362001092A700940F9093D5
S1130830A60090E0880F991F81608093CC0085EE1C
S113084086BF8091CD008130E1F38091A7008417A9
S113085010F44091A70090E00BC0292F30E0FB0179
S1130860E20FF31FD901A855BF4F2C9120839F5F3E
S1130870941798F3842F089580E008954132B8F5D1
S11308805091CD005111FCCF92E09093CD009FEF99
S1130890909362001092A7004093A60090E00AC0D3
S11308A0E92FF0E0DB01AE0FBF1F3C91E855FF4F8D
S11308B030839F5F9417A0F390E0880F991F809373
S11308C0CC0085EE86BF222321F08091CD008230BA
S11308D0D1F3809162008F3F79F080916200803281
S11308E041F080916200803331F453E005C051E05F
S11308F003C052E001C054E0852F0895DC01613249
S1130900B8F48091CD008430A9F46093840090E021
S11309100BC0292F30E0FD01E20FF31F4081F901E4
S1130920EA57FF4F40839F5F961798F380E008953E
S113093081E0089582E00895882319F085EC86BF4C
S1130940089585E886BF089585ED86BF06B604FC44
S1130950FDCF1092CD00089585EC86BF1092CD0096
S113096008951F920F920FB60F9211242F933F9365
S11309704F935F936F937F938F939F93AF93BF93A3
S1130980EF93FF9381B1E82FE87F8E2F90E0893CAD
S1130990910508F0C0C0FC01E45EFF4F099480910A
S11309A0CC0083B981E0C8DFB6C09091A7008091E4
S11309B0A600981770F4E091A70081E08E0F809351
S11309C0A700F0E0E855FF4F808183B981E0B4DFF0
S11309D0A2C0BADFA0C080E280936200B5DF9BC0F2
S11309E080E380936200B0DF96C088E38093620066
S11309F0B3DF91C0E091A70081E08E0F8093A70040
S1130A00F0E083B1E855FF4F80839091A700809177
S1130A10A600981718F481E08FDF7DC080E08CDF9A
S1130A207AC0E091A70081E08E0F8093A700F0E0E8
S1130A3083B1E855FF4F808387DF6DC083E08093E7
S1130A40CD001092630081E077DF65C08091630080
S1130A50803270F4E091630081E08E0F8093630034
S1130A60F0E083B1EC59FF4F808381E065DF53C030
S1130A7080E062DF50C080916300803230F4E09106
S1130A806300F0E0EC59FF4F10825EDF6091630079
S1130A9070E0E091C800F091C90084E690E0099507
S1130AA01092630059DF37C080E046DF34C084E031
S1130AB08093CD001092850010928400E091CA00CA
S1130AC0F091CB00099580918400811105C081E0EB
S1130AD08093840010928600E091850081E08E0F5F
S1130AE080938500F0E0EA57FF4F808183B99091AD
S1130AF0850080918400981718F481E01DDF0BC0F5
S1130B0080E01ADF08C081E017DF1092CD0003C037
S1130B101092620019DFFF91EF91BF91AF919F9105
S1130B208F917F916F915F914F913F912F910F9092
S1130B300FBE0F901F9018951092D3001092D20000
S1130B401092D0001092CF0050DE0895462F6132EB
S1130B5008F040E26CED70E05BDE1092D30080930D
S1130B60D200089591E09093CE008093D10010922A
S1130B70D0001092CF00089521E04091CF006CEF97
S1130B8070E08091D1007ADE1092D0001092CF00F4
S1130B901092CE000895CF93DF931F92CDB7DEB7A6
S1130BA089838091CE00882391F08091CF00803298
S1130BB090F48091D000E82FF0E0E450FF4F998149
S1130BC090838F5F8093D0008093CF0004C061E056
S1130BD0CE01019693DE0F90DF91CF91089590910D
S1130BE0D3008091D200981748F4E92FF0E0E45242
S1130BF0FF4F80819F5F9093D300089580E0089514
S1130C00A29FB001B39FC001A39F01D0B29F700DFA
S10F0C10811D1124911D0895F894FFCF5C
S1050C1C0100D1
S9030000FC
