S01700004763634170706C69636174696F6E382E7372656354
S1130000E4C0FEC0FDC0B2C3FBC0FAC097C1F8C0D3
S1130010F7C0F6C0F5C0F4C0F3C0F2C0F1C0F0C040
S1130020EFC05BC5EDC049C330C332C334C336C36C
S113003038C33AC33CC33EC327C629C628C627C60D
S113004026C625C624C623C666C521C620C61FC625
S11300501EC61DC61CC61BC65EC519C618C617C655
S113006016C615C614C613C65CC511C610C60FC67F
S11300700EC60DC60CC60BC66AC509C608C607C699
S113008006C605C604C603C64CC501C600C6FFC5E0
S1130090FEC5FDC5FCC5FBC55FC5F9C5F8C5F7C5FB
S11300A0F6C5F5C5F4C5F3C55CC5F1C5F0C5EFC526
S11300B0EEC5EDC5ECC5EBC564C5E9C5E8C5E7C546
S11300C0E6C5E5C5E4C5E3C573C5E1C5E0C5DFC55F
S11300D0DEC5DDC5DCC5DBC549C5D9C5D8C5D7C5B1
S11300E0D6C5D5C5D4C5D3C558C5D1C5D0C5CFC5CA
S11300F0CEC5CDC5CCC5CBC55DC5C9C5C8C5C7C5ED
S1130100C6C5C5C5C4C5C3C555C5C1C5C0C5BFC51C
S1130110BEC5BDC5BCC5BBC54DC5B9C5B8C5B7C54C
S1130120B6C5B5C5B4C5B3C545C5B1C5B0C5AFC57C
S1130130AEC5ADC5ACC5ABC545C5A9C5A8C5A7C5A4
S1130140A6C5A5C5A4C5A3C56BC5A1C5A0C59FC5A6
S11301509EC59DC59CC59BC535C599C598C597C504
S113016096C595C594C593C55BC591C590C58FC506
S11301708EC58DC58CC58BC53AC589C588C587C54F
S113018086C585C584C583C54EC581C580C57FC563
S11301907EC57DC57CC57BC546C579C578C577C593
S11301A076C575C574C573C553C571C570C56FC5AE
S11301B06EC56DC56CC56BC562C569C568C567C5C7
S11301C066C565C564C563C55AC511241FBECFE5A0
S11301D0D4E0DEBFCDBF10E0A0E6B0E0E8EDFDE086
S11301E002C005900D92A236B107D9F721E0A2E62C
S11301F0B0E001C01D92AA32B207E1F7C4D0EAC54B
S1130200FFCE6115710569F06130710599F4882399
S113021021F085B3826085BB089585B38D7F85BB4E
S11302200895882321F085B3816085BB089585B343
S11302308E7F85BB08958EB58D7F8EBD8EB58E7FE6
S11302408EBD0895109262001092630010926400B3
S1130250109265008EB583608EBD089585B382606B
S113026085BB2FEF80E792E0215080409040E1F77A
S113027000C0000085B38D7F85BB2FEF80E792E03F
S1130280215080409040E1F700C0000008959B9900
S11302902BC0FC012081211112C0FB01DC0121E0F3
S11302A02C932083C8DFFFEF20E782E0F150204049
S11302B08040E1F700C000009B9BFECF08952130F1
S11302C099F4FB012081213079F4FC011082FB01B7
S11302D01082FFEF20E782E0F15020408040E1F7F8
S11302E000C000009B9BFECF08959A9919C060E05E
S11302F070E081E086DFB2DF8091E0008F5F809361
S1130300E00091E09093660010926D0010926C00F2
S1130310833011F41092E00060E070E080E071DF5F
S11303200895B4990AC0B49BFECF81E0809366001F
S113033010926D0010926C0085DF08951F920F9249
S11303400FB60F9211248F939F93AF93BF93809115
S1130350620090916300A0916400B09165000196E1
S1130360A11DB11D8093620090936300A09364006B
S1130370B0936500BF91AF919F918F910F900FBE85
S11303800F901F901895CF93DF9300D000D0CDB776
S1130390DEB7BBD18DD483ED90E39BBD8ABD89B715
S11303A0806189BF8EB588608EBD789481E080932A
S11303B0E30082E08093E20083E08093E50084E040
S11303C08093E40052D258D25ED264D284B3816066
S11303D084BB81B3816081BB1982AE014C5F5F4FE6
S11303E0BE016D5F7F4FCE01029666D260E070E081
S11303F080E007DF8091E0008130D9F120F0823085
S113040009F4B1C028C1AE014C5F5F4FBE016D5FFE
S11304107F4FCE01029650D28C8180FF04C081E0D0
S11304208093E10002C01092E1002A818DEC289FA4
S1130430912D11249695969596959093E300990F96
S1130440392F330F330F930F291B2093E2009B8125
S1130450989F812D11248695869586958093E50035
S1130460880F282F220F220F820F981B9093E400ED
S1130470F2C066E670E0CE01019609DF52DF6091BA
S113048062007091630080916400909165002AE09D
S113049030E040E050E070D469017A01F901309312
S11304A06D0020936C002536310520F081E08093A7
S11304B0E10002C01092E100960136952795369529
S11304C0279536952795A5ECB0E278D45C01B694CF
S11304D0A794B694A794B694A794B694A794A0921C
S11304E0E30088E19CEFA89E8001A99E100DB89EB0
S11304F0100D112498012C0D3D1D36952795369528
S11305002795ABE7B4E15AD44C0196948794809232
S1130510E2004CE9582D450390011124200F311FAE
S11305202C0D3D1DADECBCEC49D496958795969564
S11305308795969587958093E500489D402D1124D5
S113054068E1A69E400D1124C40E880F982F990FC0
S1130550990F890FC81AC092E400EF30F74209F0EE
S11305607AC069DE78C080916700882319F08130F1
S113057021F01EC063D14CD11BC052D160916200E6
S11305807091630080916400909165002AE030E0EE
S113059040E050E0F1D38091680090916900821BA3
S11305A0930B90936B0080936A00892B09F443DECC
S11305B040916A0050916B009A01369527953695C3
S11305C0279536952795A5ECB0E2F8D38C011295C2
S11305D002950F7001271F7001270093E30088E143
S11305E09CEF089FF001099FF00D189FF00D112456
S11305F09A012E0F3F1F3695279536952795ABE721
S1130600B4E1DCD37C01F694E794E092E2001CE9C7
S11306106E2D1603900111242E0F3F1F240F351F3A
S1130620ADECBCECCBD3969587959695879596952E
S113063087958093E5001E9D102D112428E1029FCB
S1130640100D1124410F880F982F990F990F890FBE
S1130650481B4093E40049DEC9CE8091E100882321
S113066021F082B3816082BB089582B38E7F82BB06
S1130670089590E0FC013197E930F10518F4ED5E3E
S1130680FF4F09948CEF90E008958AED90E008956F
S113069082EF90E0089586E690E0089586EB90E07E
S11306A008958EEB90E0089580EE90E008958EEF2B
S11306B090E0089586EF90E0089580E690E0089534
S11306C018BA823079F018F4813031F0089583300B
S11306D081F08430A1F00895862FCBDF82BB81E0C6
S11306E088BB0895862FC5DF82BBB7DF82E088BB55
S11306F00895862FBEDF82BB84E088BB0895862FD1
S1130700B8DF82BB88E088BB08958FEF81BB82BBD2
S113071097B39F6097BB18BA2FEF39E698E1215041
S113072030409040E1F700C0000088BB2FEF39E66D
S113073088E1215030408040E1F700C0000018BA41
S11307409FEF29E638E1915020403040E1F700C0A6
S1130750000012BA85B5886085BD85B5866085BD03
S11307608BE983BD89B7806889BF08951F920F9272
S11307700FB60F9211242F933F934F935F936F9370
S11307807F938F939F93AF93BF93EF93FF93809146
S11307906000823079F018F4813031F01CC083306D
S11307A079F0843099F017C0809160006091E30083
S11307B087DF11C0809160006091E20081DF0BC08F
S11307C0809160006091E5007BDF05C0809160004E
S11307D06091E40075DF809160008F5F809360001A
S11307E080916000853018F081E080936000FF9173
S11307F0EF91BF91AF919F918F917F916F915F9195
S11308004F913F912F910F900FBE0F901F9018950D
S11308109B9905C09B9BFECF81E080936700089560
S1130820B4990BC0B49BFECF80916A0090916B0089
S1130830909369008093680005DD0895B49914C00D
S11308402FEF80E792E0215080409040E1F700C014
S11308500000B49909C080916A0090916B000196E0
S113086090936B0080936A00089587B38F7D87BB54
S113087088B3806288BB089587B38F7E87BB88B3B3
S1130880806188BB089584B38B7F84BB85B3846007
S113089085BB089584B3877F84BB85B3886085BB9B
S11308A00895982F92959F70990F292F220F220F48
S11308B0920F8F70890F08958F929F92AF92BF927B
S11308C0CF92DF92EF92FF921F93CF93DF93CDB736
S11308D0DEB729970FB6F894DEBF0FBECDBF6C010B
S11308E05B014A0188E6FAD180E011D201D267E0C7
S11308F088E6E8D110E00BC0E12EF12C2CD2E1E027
S1130900F0E0EC0FFD1FEE0DFF1D80831F5F17301D
S113091098F3EED18114910421F08981C2DFF401AE
S11309208083A114B10421F08A81BBDFF5018083A7
S1130930C114D10421F08B81B4DFF60180832996A0
S11309400FB6F894DEBF0FBECDBFDF91CF911F91DC
S1130950FF90EF90DF90CF90BF90AF909F908F90DB
S113096008951092D90082B3816082BB82B3826001
S113097082BB81B18E7F81B981B18D7F81B984E2DF
S113098080B985E486BF0895413290F59091D900ED
S11309909111FCCF91E09093D9009FEF90936E005A
S11309A01092B300940F9093B20090E0880F991FB7
S11309B081608093D80085EE86BF8091D900813014
S11309C0E1F38091B300841710F44091B30090E0F8
S11309D00BC0292F30E0FB01E20FF31FD901AC5407
S11309E0BF4F2C9120839F5F941798F3842F089511
S11309F080E008954132B8F55091D9005111FCCFEF
S1130A0092E09093D9009FEF90936E001092B30000
S1130A104093B20090E00AC0E92FF0E0DB01AE0F92
S1130A20BF1F3C91EC54FF4F30839F5F9417A0F39A
S1130A3090E0880F991F8093D80085EE86BF22230B
S1130A4021F08091D9008230D1F380916E008F3FE4
S1130A5079F080916E00803241F080916E00803395
S1130A6031F453E005C051E003C052E001C054E04A
S1130A70852F0895DC016132B8F48091D900843067
S1130A80A9F46093900090E00BC0292F30E0FD01A1
S1130A90E20FF31F4081F901EE56FF4F40839F5F41
S1130AA0961798F380E0089581E0089582E0089510
S1130AB0882319F085EC86BF089585E886BF0895DC
S1130AC085ED86BF06B604FCFDCF1092D9000895CB
S1130AD085EC86BF1092D90008951F920F920FB62D
S1130AE00F9211242F933F934F935F936F937F93B0
S1130AF08F939F93AF93BF93EF93FF9381B1E82FAD
S1130B00E87F8E2F90E0893C910508F0C0C0FC017D
S1130B10E45EFF4F09948091D80083B981E0C8DF77
S1130B20B6C09091B3008091B200981770F4E09130
S1130B30B30081E08E0F8093B300F0E0EC54FF4FDC
S1130B40808183B981E0B4DFA2C0BADFA0C080E2B3
S1130B5080936E00B5DF9BC080E380936E00B0DFAE
S1130B6096C088E380936E00B3DF91C0E091B30038
S1130B7081E08E0F8093B300F0E083B1EC54FF4F1B
S1130B8080839091B3008091B200981718F481E0AB
S1130B908FDF7DC080E08CDF7AC0E091B30081E01C
S1130BA08E0F8093B300F0E083B1EC54FF4F808349
S1130BB087DF6DC083E08093D90010926F0081E0DD
S1130BC077DF65C080916F00803270F4E0916F0030
S1130BD081E08E0F80936F00F0E083B1E059FF4F06
S1130BE0808381E065DF53C080E062DF50C0809184
S1130BF06F00803230F4E0916F00F0E0E059FF4F75
S1130C0010825EDF60916F0070E0E091D400F0919B
S1130C10D50080E790E0099510926F0059DF37C046
S1130C2080E046DF34C084E08093D90010929100C4
S1130C3010929000E091D600F091D7000995809130
S1130C409000811105C081E0809390001092920081
S1130C50E091910081E08E0F80939100F0E0EE56D8
S1130C60FF4F808183B990919100809190009817F3
S1130C7018F481E01DDF0BC080E01ADF08C081E0BA
S1130C8017DF1092D90003C010926E0019DFFF9194
S1130C90EF91BF91AF919F918F917F916F915F91F0
S1130CA04F913F912F910F900FBE0F901F90189569
S1130CB01092DF001092DE001092DC001092DB0034
S1130CC050DE0895462F613208F040E268EE70E08D
S1130CD05BDE1092DF008093DE00089591E0909334
S1130CE0DA008093DD001092DC001092DB0008959E
S1130CF021E04091DB0068E071E08091DD007ADE64
S1130D001092DC001092DB001092DA000895CF9369
S1130D10DF931F92CDB7DEB789838091DA008823F1
S1130D2091F08091DB00803290F48091DC00E82F18
S1130D30F0E0E85FFE4F998190838F5F8093DC0041
S1130D408093DB0004C061E0CE01019693DE0F9036
S1130D50DF91CF9108959091DF008091DE00981784
S1130D6048F4E92FF0E0E851FF4F80819F5F9093B2
S1130D70DF00089580E00895A1E21A2EAA1BBB1B90
S1130D80FD010DC0AA1FBB1FEE1FFF1FA217B30753
S1130D90E407F50720F0A21BB30BE40BF50B661F69
S1130DA0771F881F991F1A9469F76095709580952D
S1130DB090959B01AC01BD01CF010895A29FB001A4
S1130DC0B39FC001A39F01D0B29F700D811D112458
S10B0DD0911D0895F894FFCF72
S1050DD8010014
S9030000FC
