S01700004763634170706C69636174696F6E382E7372656354
S1130000E4C0FEC0FDC06EC3FBC0FAC0F9C0F8C0B6
S1130010F7C0F6C0F5C0F4C0F3C0F2C0F1C0F0C040
S1130020EFC0CEC4EDC006C3EDC2EFC2F1C2F3C24D
S1130030F5C2F7C2F9C2FBC29AC59CC59BC59AC555
S113004099C598C597C596C5D9C494C593C592C595
S113005091C590C58FC58EC5D1C48CC58BC58AC5C5
S113006089C588C587C586C5CFC484C583C582C5EF
S113007081C580C57FC57EC5DDC47CC57BC57AC509
S113008079C578C577C576C5BFC474C573C572C54F
S113009071C570C56FC56EC5D2C46CC56BC56AC564
S11300A069C568C567C566C5CFC464C563C562C58F
S11300B061C560C55FC55EC5D7C45CC55BC55AC5AF
S11300C059C558C557C556C5E6C454C553C552C5C8
S11300D051C550C54FC54EC5BCC44CC54BC54AC51A
S11300E049C548C547C546C5CBC444C543C542C533
S11300F041C540C53FC53EC5D0C43CC53BC53AC556
S113010039C538C537C536C5C8C434C533C532C585
S113011031C530C52FC52EC5C0C42CC52BC52AC5B5
S113012029C528C527C526C5B8C424C523C522C5E5
S113013021C520C51FC51EC5B8C41CC51BC51AC50D
S113014019C518C517C516C5DEC414C513C512C50F
S113015011C510C50FC50EC5A8C40CC50BC50AC56D
S113016009C508C507C506C5CEC404C503C502C56F
S113017001C500C5FFC4FEC4ADC4FCC4FBC4FAC4BD
S1130180F9C4F8C4F7C4F6C4C1C4F4C4F3C4F2C4D3
S1130190F1C4F0C4EFC4EEC4B9C4ECC4EBC4EAC403
S11301A0E9C4E8C4E7C4E6C4C6C4E4C4E3C4E2C41E
S11301B0E1C4E0C4DFC4DEC4D5C4DCC4DBC4DAC437
S11301C0D9C4D8C4D7C4D6C4CDC411241FBECFE566
S11301D0D4E0DEBFCDBF10E0A0E6B0E0EAE7FCE08B
S11301E002C005900D92A236B107D9F721E0A2E62C
S11301F0B0E001C01D92A132B207E1F754D03BC573
S1130200FFCE882321F085B3816085BB089585B333
S11302108E7F85BB089582B3816082BB089582B3CB
S11302208E7F82BB08959B9925C0FC0120812111FA
S11302300EC021E02083FB012083FFEF20E782E052
S1130240F15020408040E1F700C0000008952130C3
S113025089F4FB012081213069F4FC011082FB0147
S11302601082FFEF20E782E0F15020408040E1F768
S113027000C00000089580E0C4DF9A9911C0809105
S1130280D4008F5F8093D400E7EDF0E010821182F8
S1130290128283839A9BFECF833011F41092D40090
S11302A081E0AFDF0895CF93DF9300D000D01F9299
S11302B0CDB7DEB7E6D16FD4E7EDF0E081E080831F
S11302C081838283838378948093D60082E08093B1
S11302D0D50083E08093DC0084E08093DB0084B36A
S11302E0877F84BB85B3886085BB84B38B7F84BBE5
S11302F085B3846085BB84B3816084BB81B3816032
S113030081BB19821A82AE014B5F5F4FBE016C5FE5
S11303107F4FCE01039643D200E010E080E071DF0E
S11303208091D4008130D1F120F0823009F4C7C02B
S11303305BC181E066DFAE014B5F5F4FBE016C5F66
S11303407F4FCE0103962BD28D8180FF02C063DFE5
S113035001C065DF2B818DEC289F912D112496958A
S1130360969596959093D600990F392F330F330FA6
S1130370930F291B2093D5009C81989F812D1124D4
S11303808695869586958093DC00880F282F220F0A
S1130390220F820F981B9093DB0026C1BE016E5F73
S11303A07F4FCE0101963FDF98013695279536950C
S11303B0279536952795A5ECB0E251D47C01F694A7
S11303C0E794F694E794F694E794F694E794E0922D
S11303D0D600E114F10419F0E092D70003C08AE0DA
S11303E08093D70088E19CEFE89EA001E99E500D20
S11303F0F89E500D11249801240F351F369527952A
S113040036952795ABE7B4E12AD4FC01F695E79538
S1130410E093D500EE2319F0E093D80009C0083E1C
S113042023E0120710F08E2F01C08AE08093D800D9
S11304309A0184E6E89F201931091124200F311F05
S1130440ADECBCEC0CD496958795969587959695CE
S113045087958093DC00882319F08093D90008C025
S11304600436110510F0282F01C02AE02093D9008A
S11304709CE99E9F902D112428E1E29E900D112469
S1130480900F880F282F220F220F820F981B909312
S1130490DB009093DA008FE798E321E081509040ED
S11304A02040E1F700C000008A81811102C00F5F83
S11304B01F4F0F3087E2180709F096C090C0BE01A5
S11304C06E5F7F4FCE010196AEDE9801369527957B
S11304D03695279536952795A5ECB0E2C0D37C01D7
S11304E0F694E794F694E794F694E794F694E794F4
S11304F0E092D600E114F10419F0E092D70003C0B1
S11305008AE08093D70088E19CEFE89EA001E99EF1
S1130510500DF89E500D11249801240F351F369567
S1130520279536952795ABE7B4E199D3FC01F69569
S1130530E795E093D500EE2319F0E093D80009C0C5
S1130540083E93E0190710F08E2F01C08AE08093D3
S1130550D8009A0184E6E89F201931091124200F5C
S1130560311FADECBCEC7BD396958795969587951A
S1130570969587958093DC00882319F08093D900A1
S113058008C00436110510F0282F01C02AE020937A
S1130590D9009CE99E9F902D112428E1E29E900DA4
S11305A01124900F880F282F220F220F820F981BDF
S11305B09093DB009093DA008FE798E321E0815079
S11305C090402040E1F700C000008A81811102C000
S11305D0015011090F3087E2180731F403C000E01D
S11305E010E002C000E010E046DE98CE90E0FC018E
S11305F03197E930F10518F4ED5EFF4F09948CEF63
S113060090E008958AED90E0089582EF90E00895D7
S113061086E690E0089586EB90E008958EEB90E0F6
S1130620089580EE90E008958EEF90E0089586EFAF
S113063090E0089580E690E0089518BA823079F049
S113064018F4813031F00895833079F0843099F0D2
S11306500895862FCBDF82BB81E088BB0895862F67
S1130660C5DF82BB82E088BB0895862FBFDF82BBD3
S113067084E088BB0895862FB9DF82BB88E088BBFD
S113068008958FEF81BB82BB97B39F6097BB18BA65
S11306902FEF39E698E1215030409040E1F700C057
S11306A0000088BB2FEF39E688E1215030408040BC
S11306B0E1F700C0000018BA9FEF29E638E1915035
S11306C020403040E1F700C0000012BA85B58860D0
S11306D085BD85B5866085BD8BE983BD89B7806896
S11306E089BF08951F920F920FB60F9211242F9372
S11306F03F934F935F936F937F938F939F93AF93A6
S1130700BF93EF93FF9380916000823079F018F4E7
S1130710813031F01CC0833079F0843099F017C0F7
S1130720809160006091D60088DF11C080916000E4
S11307306091D50082DF0BC0809160006091DC0085
S11307407CDF05C0809160006091DB0076DF8091E2
S113075060008F5F8093600080916000853018F0A6
S113076081E080936000FF91EF91BF91AF919F91E1
S11307708F917F916F915F914F913F912F910F9046
S11307800FBE0F901F901895982F92959F70990FF8
S1130790292F220F220F920F8F70890F08958F92A5
S11307A09F92AF92BF92CF92DF92EF92FF921F93EC
S11307B0CF93DF93CDB7DEB729970FB6F894DEBF9A
S11307C00FBECDBF6C015B014A0188E6FAD180E01F
S11307D011D201D267E088E6E8D110E00BC0E12E27
S11307E0F12C2CD2E1E0F0E0EC0FFD1FEE0DFF1D2B
S11307F080831F5F173098F3EED18114910421F0A8
S11308008981C2DFF4018083A114B10421F08A81BB
S1130810BBDFF5018083C114D10421F08B81B4DFE7
S1130820F601808329960FB6F894DEBF0FBECDBFC4
S1130830DF91CF911F91FF90EF90DF90CF90BF9009
S1130840AF909F908F9008951092CD0082B38160F5
S113085082BB82B3826082BB81B18E7F81B981B158
S11308608D7F81B984E280B985E486BF08954132E1
S113087090F59091CD009111FCCF91E09093CD0033
S11308809FEF909362001092A700940F9093A6009C
S113089090E0880F991F81608093CC0085EE86BF1D
S11308A08091CD008130E1F38091A700841710F48A
S11308B04091A70090E00BC0292F30E0FB01E20F2C
S11308C0F31FD901A855BF4F2C9120839F5F941724
S11308D098F3842F089580E008954132B8F550913B
S11308E0CD005111FCCF92E09093CD009FEF9093F7
S11308F062001092A7004093A60090E00AC0E92F7E
S1130900F0E0DB01AE0FBF1F3C91E855FF4F308391
S11309109F5F9417A0F390E0880F991F8093CC00F9
S113092085EE86BF222321F08091CD008230D1F361
S1130930809162008F3F79F080916200803241F0B3
S113094080916200803331F453E005C051E003C06C
S113095052E001C054E0852F0895DC016132B8F4FF
S11309608091CD008430A9F46093840090E00BC0A2
S1130970292F30E0FD01E20FF31F4081F901EA570E
S1130980FF4F40839F5F961798F380E0089581E0BE
S1130990089582E00895882319F085EC86BF0895B0
S11309A085E886BF089585ED86BF06B604FCFDCFB5
S11309B01092CD00089585EC86BF1092CD00089565
S11309C01F920F920FB60F9211242F933F934F93C0
S11309D05F936F937F938F939F93AF93BF93EF93A3
S11309E0FF9381B1E82FE87F8E2F90E0893C910539
S11309F008F0C0C0FC01E45EFF4F09948091CC0074
S1130A0083B981E0C8DFB6C09091A7008091A600A9
S1130A10981770F4E091A70081E08E0F8093A700EF
S1130A20F0E0E855FF4F808183B981E0B4DFA2C0D4
S1130A30BADFA0C080E280936200B5DF9BC080E390
S1130A4080936200B0DF96C088E380936200B3DFD6
S1130A5091C0E091A70081E08E0F8093A700F0E0A1
S1130A6083B1E855FF4F80839091A7008091A60041
S1130A70981718F481E08FDF7DC080E08CDF7AC0A6
S1130A80E091A70081E08E0F8093A700F0E083B18E
S1130A90E855FF4F808387DF6DC083E08093CD00EE
S1130AA01092630081E077DF65C08091630080323B
S1130AB070F4E091630081E08E0F80936300F0E0B6
S1130AC083B1EC59FF4F808381E065DF53C080E040
S1130AD062DF50C080916300803230F4E0916300A3
S1130AE0F0E0EC59FF4F10825EDF6091630070E02C
S1130AF0E091C800F091C90084E690E00995109255
S1130B00630059DF37C080E046DF34C084E080935F
S1130B10CD001092850010928400E091CA00F091FB
S1130B20CB00099580918400811105C081E08093F8
S1130B30840010928600E091850081E08E0F8093FE
S1130B408500F0E0EA57FF4F808183B990918500DA
S1130B5080918400981718F481E01DDF0BC080E0B9
S1130B601ADF08C081E017DF1092CD0003C0109295
S1130B70620019DFFF91EF91BF91AF919F918F9127
S1130B807F916F915F914F913F912F910F900FBE85
S1130B900F901F9018951092D3001092D2001092CB
S1130BA0D0001092CF0050DE0895462F613208F035
S1130BB040E26FED70E05BDE1092D3008093D200D0
S1130BC0089591E09093CE008093D1001092D000CC
S1130BD01092CF00089521E04091CF006FEF70E0B4
S1130BE08091D1007ADE1092D0001092CF00109242
S1130BF0CE000895CF93DF931F92CDB7DEB78983DC
S1130C008091CE00882391F08091CF00803290F4BF
S1130C108091D000E82FF0E0E150FF4F998190835C
S1130C208F5F8093D0008093CF0004C061E0CE0139
S1130C30019693DE0F90DF91CF9108959091D300A8
S1130C408091D200981748F4E92FF0E0E152FF4F69
S1130C5080819F5F9093D300089580E00895A29FC0
S1130C60B001B39FC001A39F01D0B29F700D811D3D
S10D0C701124911D0895F894FFCF9C
S1050C7A010073
S9030000FC
