S01700004763634170706C69636174696F6E382E7372656354
S1130000E4C0FEC0FDC0A7C3FBC0FAC085C1F8C0F0
S1130010F7C0F6C0F5C0F4C0F3C0F2C0F1C0F0C040
S1130020EFC074C5EDC034C31BC31DC31FC321C3BC
S113003023C325C327C329C340C642C641C640C6FD
S11300403FC63EC63DC63CC67FC53AC639C638C65D
S113005037C636C635C634C677C532C631C630C68D
S11300602FC62EC62DC62CC675C52AC629C628C6B7
S113007027C626C625C624C683C522C621C620C6D1
S11300801FC61EC61DC61CC665C51AC619C618C617
S113009017C616C615C614C678C512C611C610C62C
S11300A00FC60EC60DC60CC675C50AC609C608C657
S11300B007C606C605C604C67DC502C601C600C677
S11300C0FFC5FEC5FDC5FCC58CC5FAC5F9C5F8C597
S11300D0F7C5F6C5F5C5F4C562C5F2C5F1C5F0C5E9
S11300E0EFC5EEC5EDC5ECC571C5EAC5E9C5E8C502
S11300F0E7C5E6C5E5C5E4C576C5E2C5E1C5E0C525
S1130100DFC5DEC5DDC5DCC56EC5DAC5D9C5D8C554
S1130110D7C5D6C5D5C5D4C566C5D2C5D1C5D0C584
S1130120CFC5CEC5CDC5CCC55EC5CAC5C9C5C8C5B4
S1130130C7C5C6C5C5C5C4C55EC5C2C5C1C5C0C5DC
S1130140BFC5BEC5BDC5BCC584C5BAC5B9C5B8C5DE
S1130150B7C5B6C5B5C5B4C54EC5B2C5B1C5B0C53C
S1130160AFC5AEC5ADC5ACC574C5AAC5A9C5A8C53E
S1130170A7C5A6C5A5C5A4C553C5A2C5A1C5A0C587
S11301809FC59EC59DC59CC567C59AC599C598C59B
S113019097C596C595C594C55FC592C591C590C5CB
S11301A08FC58EC58DC58CC56CC58AC589C588C5E6
S11301B087C586C585C584C57BC582C581C580C5FF
S11301C07FC57EC57DC57CC573C511241FBECFE523
S11301D0D4E0DEBFCDBF10E0A0E6B0E0EAE0FEE090
S11301E002C005900D92A236B107D9F721E0A2E62C
S11301F0B0E001C01D92A133B207E1F7B2D003C64B
S1130200FFCE882321F082B3816082BB089582B33C
S11302108E7F82BB08956115710569F061307105A7
S113022099F4882321F085B3826085BB089585B352
S11302308D7F85BB0895882321F085B3816085BBBC
S1130240089585B38E7F85BB089585B3826085BB91
S11302502FEF80E792E0215080409040E1F700C00A
S1130260000085B38D7F85BB2FEF80E792E021509E
S113027080409040E1F700C0000008958EB58D7F66
S11302808EBD8EB58E7F8EBD089510926200109241
S1130290630010926400109265008EB583608EBD79
S11302A008959B992BC0FC012081211112C0FB01F0
S11302B0DC0121E02C932083E1DFFFEF20E782E0E3
S11302C0F15020408040E1F700C000009B9BFECF2E
S11302D00895213099F4FB012081213079F4FC0147
S11302E01082FB011082FFEF20E782E0F1502040F2
S11302F08040E1F700C000009B9BFECF0895B499B5
S11303000AC0B49BFECF81E08093660010926D001A
S113031010926C00BADF08951F920F920FB60F92DD
S113032011248F939F93AF93BF9380916200909118
S11303306300A0916400B09165000196A11DB11DF8
S11303408093620090936300A0936400B09365006F
S1130350BF91AF919F918F910F900FBE0F901F90FF
S11303601895CF93DF9300D000D0CDB7DEB7C2D1BC
S1130370B8D483ED90E39BBD8ABD89B7806189BF02
S11303808EB588608EBD7894E0EEF0E081E090E078
S11303909183808382E090E09383828383E090E082
S11303A09583848384E090E0978386835BD261D2D3
S11303B067D26DD284B3816084BB81B3816081BB19
S11303C01982AE014C5F5F4FBE016D5F7F4FCE015E
S11303D002968BD260E070E080E01DDF8091EC003B
S11303E0813009F442C020F0823009F4B5C02AC13A
S11303F0AE014C5F5F4FBE016D5F7F4FCE01029631
S113040074D28C8180FF04C081E08093E90002C033
S11304101092E9003A812DEC329F412D112446952A
S11304204695469550E0E0EEF0E05183408366EF58
S11304306403C001659F900D1124830F911D938364
S113044082834B81429F212D112426952695269542
S113045030E0358324836203C001639F900D11242F
S1130460840F911D97838683EDC066E670E0CE010C
S1130470019617DF44DF6091620070916300809100
S11304806400909165002AE030E040E050E08DD4B3
S113049069017A01A901D0926D00C0926C002536E1
S11304A0310520F081E08093E90002C01092E90058
S11304B09601369527953695279536952795A5EC7B
S11304C0B0E295D4929582958F7089279F70892781
S11304D0E0EEF0E09183808328E13CEF829F80018D
S11304E0839F100D929F100D112498012C0D3D1D1A
S11304F03695279536952795ABE7B4E178D496954C
S1130500879593838283ACE96A2F9C01620350012F
S1130510639FB00C11240A0D1B1DC00ED11E960141
S1130520ADECBCEC64D49695879596958795969595
S113053087959583848366EF8C0160039001619FA6
S1130540300D1124C20ED31ED782C6824F305742BB
S113055009F078C093DE76C080916700882319F093
S1130560813021F01EC067D150D11BC056D160919B
S113057062007091630080916400909165002AE0AC
S113058030E040E050E011D480916800909169001F
S1130590821B930B90936B0080936A00892B09F460
S11305A06DDE40916A0050916B009A013695279553
S11305B03695279536952795A5ECB0E218D49295F3
S11305C082958F7089279F708927E0EEF0E09183F0
S11305D0808328E13CEF829F7001839FF00C929FFF
S11305E0F00C11249A012E0D3F1D36952795369552
S11305F02795ABE7B4E1FBD39695879593838283E4
S11306006CE98C0160039001619F300D1124E20EAE
S1130610F31E4E0D5F1D9A01ADECBCECE8D396952C
S1130620879596958795969587959583848366EFA8
S11306308C0160039001619F300D1124420F531F00
S1130640578346832BD1C6CE90E0FC013197E93025
S1130650F10518F4ED5EFF4F09948CEF90E00895D6
S11306608AED90E0089582EF90E0089586E690E0A8
S1130670089586EB90E008958EEB90E0089580EE67
S113068090E008958EEF90E0089586EF90E008954D
S113069080E690E00895CF93C42F18BA823089F091
S11306A018F4813031F024C0833099F08430C9F0DB
S11306B01FC0862FC9DF82BB8C2FA3DD81E088BBDE
S11306C017C0862FC1DF82BB8C2F9BDD82E088BBE5
S11306D00FC0862FB9DF82BB8C2F93DD84E088BBEB
S11306E007C0862FB1DF82BB8C2F8BDD88E088BBEF
S11306F0CF9108958FEF81BB82BB97B39F6097BB67
S113070018BA2FEF39E698E1215030409040E1F7D4
S113071000C0000088BB2FEF39E688E1215030404B
S11307208040E1F700C0000018BA9FEF29E638E1E5
S1130730915020403040E1F700C0000012BA85B566
S1130740886085BD85B5866085BD8BE983BD89B725
S1130750806889BF08951F920F920FB60F921124DB
S11307602F933F934F935F936F937F938F939F93B5
S1130770AF93BF93EF93FF9380916000823089F031
S113078018F4813031F024C0833099F08430C9F0FA
S11307901FC0E0EEF0E060818091600040857BDF67
S11307A017C0E0EEF0E0628180916000418573DF64
S11307B00FC0E0EEF0E064818091600042856BDF61
S11307C007C0E0EEF0E0668180916000438563DF5E
S11307D0809160008F5F809360008091600085301D
S11307E018F081E080936000FF91EF91BF91AF9189
S11307F09F918F917F916F915F914F913F912F9135
S11308000F900FBE0F901F9018959B9905C09B9B4E
S1130810FECF81E0809367000895B4990BC0B49B28
S1130820FECF80916A0090916B0090936900809351
S113083068002BDD0895B49914C02FEF80E792E08F
S1130840215080409040E1F700C00000B49909C0F5
S113085080916A0090916B00019690936B00809355
S11308606A00089587B38F7D87BB88B3806288BB95
S1130870089587B38F7E87BB88B3806188BB089552
S113088084B38B7F84BB85B3846085BB089584B3B4
S1130890877F84BB85B3886085BB08959A9919C006
S11308A060E070E081E0B7DCD0DC8091EC008F5F29
S11308B08093EC0091E09093660010926D0010928A
S11308C06C00833011F41092EC0060E070E080E082
S11308D0A2DC0895982F92959F70990F292F220FCB
S11308E0220F920F8F70890F08958F929F92AF926B
S11308F0BF92CF92DF92EF92FF921F93CF93DF9339
S1130900CDB7DEB729970FB6F894DEBF0FBECDBFC3
S11309106C015B014A0188E6FAD180E011D201D270
S113092067E088E6E8D110E00BC0E12EF12C2CD270
S1130930E1E0F0E0EC0FFD1FEE0DFF1D80831F5F73
S1130940173098F3EED18114910421F08981C2DF2C
S1130950F4018083A114B10421F08A81BBDFF50185
S11309608083C114D10421F08B81B4DFF60180832C
S113097029960FB6F894DEBF0FBECDBFDF91CF919D
S11309801F91FF90EF90DF90CF90BF90AF909F901A
S11309908F9008951092D90082B3816082BB82B394
S11309A0826082BB81B18E7F81B981B18D7F81B933
S11309B084E280B985E486BF0895413290F5909130
S11309C0D9009111FCCF91E09093D9009FEF9093BF
S11309D06E001092B300940F9093B20090E0880FD1
S11309E0991F81608093D80085EE86BF8091D900DD
S11309F08130E1F38091B300841710F44091B30087
S1130A0090E00BC0292F30E0FB01E20FF31FD90166
S1130A10AC54BF4F2C9120839F5F941798F3842F7D
S1130A20089580E008954132B8F55091D9005111EC
S1130A30FCCF92E09093D9009FEF90936E001092B8
S1130A40B3004093B20090E00AC0E92FF0E0DB016C
S1130A50AE0FBF1F3C91EC54FF4F30839F5F941740
S1130A60A0F390E0880F991F8093D80085EE86BF8D
S1130A70222321F08091D9008230D1F380916E003D
S1130A808F3F79F080916E00803241F080916E004A
S1130A90803331F453E005C051E003C052E001C09B
S1130AA054E0852F0895DC016132B8F48091D900B7
S1130AB08430A9F46093900090E00BC0292F30E0BB
S1130AC0FD01E20FF31F4081F901EE56FF4F408311
S1130AD09F5F961798F380E0089581E0089582E07F
S1130AE00895882319F085EC86BF089585E886BFAC
S1130AF0089585ED86BF06B604FCFDCF1092D9009B
S1130B00089585EC86BF1092D90008951F920F9224
S1130B100FB60F9211242F933F934F935F936F93CC
S1130B207F938F939F93AF93BF93EF93FF9381B181
S1130B30E82FE87F8E2F90E0893C910508F0C0C033
S1130B40FC01E45EFF4F09948091D80083B981E0F1
S1130B50C8DFB6C09091B3008091B200981770F4CA
S1130B60E091B30081E08E0F8093B300F0E0EC5489
S1130B70FF4F808183B981E0B4DFA2C0BADFA0C097
S1130B8080E280936E00B5DF9BC080E380936E00AB
S1130B90B0DF96C088E380936E00B3DF91C0E0912C
S1130BA0B30081E08E0F8093B300F0E083B1EC5486
S1130BB0FF4F80839091B3008091B200981718F48E
S1130BC081E08FDF7DC080E08CDF7AC0E091B300EC
S1130BD081E08E0F8093B300F0E083B1EC54FF4FBB
S1130BE0808387DF6DC083E08093D90010926F000B
S1130BF081E077DF65C080916F00803270F4E0910E
S1130C006F0081E08E0F80936F00F0E083B1E059B4
S1130C10FF4F808381E065DF53C080E062DF50C016
S1130C2080916F00803230F4E0916F00F0E0E05981
S1130C30FF4F10825EDF60916F0070E0E091D4009E
S1130C40F091D50080E790E0099510926F0059DF8C
S1130C5037C080E046DF34C084E08093D90010922E
S1130C60910010929000E091D600F091D700099580
S1130C7080919000811105C081E0809390001092D2
S1130C809200E091910081E08E0F80939100F0E05A
S1130C90EE56FF4F808183B990919100809190002E
S1130CA0981718F481E01DDF0BC080E01ADF08C03C
S1130CB081E017DF1092D90003C010926E0019DF93
S1130CC0FF91EF91BF91AF919F918F917F916F9120
S1130CD05F914F913F912F910F900FBE0F901F90F6
S1130CE018951092DF001092DE001092DC00109232
S1130CF0DB0050DE0895462F613208F040E26FEECB
S1130D0070E05BDE1092DF008093DE00089591E0D6
S1130D109093DA008093DD001092DC001092DB00E7
S1130D20089521E04091DB006FE071E08091DD00E7
S1130D307ADE1092DC001092DB001092DA00089543
S1130D40CF93DF931F92CDB7DEB789838091DA000A
S1130D50882391F08091DB00803290F48091DC0054
S1130D60E82FF0E0E15FFE4F998190838F5F8093DD
S1130D70DC008093DB0004C061E0CE01019693DEC9
S1130D800F90DF91CF9108959091DF008091DE0064
S1130D90981748F4E92FF0E0E151FF4F80819F5FFD
S1130DA09093DF00089580E00895A1E21A2EAA1B13
S1130DB0BB1BFD010DC0AA1FBB1FEE1FFF1FA21707
S1130DC0B307E407F50720F0A21BB30BE40BF50B04
S1130DD0661F771F881F991F1A9469F7609570958D
S1130DE0809590959B01AC01BD01CF010895A29F10
S1130DF0B001B39FC001A39F01D0B29F700D811DAC
S10D0E001124911D0895F894FFCF0A
S1050E0A0100E1
S9030000FC
